{
  "_format": "hh-sol-artifact-1",
  "contractName": "RContract",
  "sourceName": "contracts/UmarContract.sol",
  "abi": [
    {
      "inputs": [],
      "stateMutability": "nonpayable",
      "type": "constructor"
    },
    {
      "anonymous": false,
      "inputs": [
        {
          "indexed": false,
          "internalType": "string",
          "name": "",
          "type": "string"
        }
      ],
      "name": "Transaction",
      "type": "event"
    },
    {
      "inputs": [],
      "name": "ownerBal",
      "outputs": [
        {
          "internalType": "uint256",
          "name": "",
          "type": "uint256"
        }
      ],
      "stateMutability": "view",
      "type": "function"
    },
    {
      "inputs": [],
      "name": "ownerName",
      "outputs": [
        {
          "internalType": "string",
          "name": "",
          "type": "string"
        }
      ],
      "stateMutability": "view",
      "type": "function"
    },
    {
      "inputs": [],
      "name": "transferOwner",
      "outputs": [],
      "stateMutability": "payable",
      "type": "function"
    }
  ],
  "bytecode": "0x60806040523480156200001157600080fd5b506040518060400160405280600481526020017f556d617200000000000000000000000000000000000000000000000000000000815250600090816200005891906200031a565b5033600160006101000a81548173ffffffffffffffffffffffffffffffffffffffff021916908373ffffffffffffffffffffffffffffffffffffffff16021790555062000401565b600081519050919050565b7f4e487b7100000000000000000000000000000000000000000000000000000000600052604160045260246000fd5b7f4e487b7100000000000000000000000000000000000000000000000000000000600052602260045260246000fd5b600060028204905060018216806200012257607f821691505b602082108103620001385762000137620000da565b5b50919050565b60008190508160005260206000209050919050565b60006020601f8301049050919050565b600082821b905092915050565b600060088302620001a27fffffffffffffffffffffffffffffffffffffffffffffffffffffffffffffffff8262000163565b620001ae868362000163565b95508019841693508086168417925050509392505050565b6000819050919050565b6000819050919050565b6000620001fb620001f5620001ef84620001c6565b620001d0565b620001c6565b9050919050565b6000819050919050565b6200021783620001da565b6200022f620002268262000202565b84845462000170565b825550505050565b600090565b6200024662000237565b620002538184846200020c565b505050565b5b818110156200027b576200026f6000826200023c565b60018101905062000259565b5050565b601f821115620002ca5762000294816200013e565b6200029f8462000153565b81016020851015620002af578190505b620002c7620002be8562000153565b83018262000258565b50505b505050565b600082821c905092915050565b6000620002ef60001984600802620002cf565b1980831691505092915050565b60006200030a8383620002dc565b9150826002028217905092915050565b6200032582620000a0565b67ffffffffffffffff811115620003415762000340620000ab565b5b6200034d825462000109565b6200035a8282856200027f565b600060209050601f8311600181146200039257600084156200037d578287015190505b620003898582620002fc565b865550620003f9565b601f198416620003a2866200013e565b60005b82811015620003cc57848901518255600182019150602085019450602081019050620003a5565b86831015620003ec5784890151620003e8601f891682620002dc565b8355505b6001600288020188555050505b505050505050565b61056580620004116000396000f3fe6080604052600436106100345760003560e01c806307d490201461003957806365ac232014610064578063df05f42e1461008f575b600080fd5b34801561004557600080fd5b5061004e610099565b60405161005b91906102be565b60405180910390f35b34801561007057600080fd5b506100796100da565b6040516100869190610369565b60405180910390f35b610097610168565b005b6000600160009054906101000a900473ffffffffffffffffffffffffffffffffffffffff1673ffffffffffffffffffffffffffffffffffffffff1631905090565b600080546100e7906103ba565b80601f0160208091040260200160405190810160405280929190818152602001828054610113906103ba565b80156101605780601f1061013557610100808354040283529160200191610160565b820191906000526020600020905b81548152906001019060200180831161014357829003601f168201915b505050505081565b600034116101ab576040517f08c379a00000000000000000000000000000000000000000000000000000000081526004016101a290610437565b60405180910390fd5b3373ffffffffffffffffffffffffffffffffffffffff1631341115610205576040517f08c379a00000000000000000000000000000000000000000000000000000000081526004016101fc906104a3565b60405180910390fd5b600160009054906101000a900473ffffffffffffffffffffffffffffffffffffffff1673ffffffffffffffffffffffffffffffffffffffff166108fc349081150290604051600060405180830381858888f1935050505015801561026d573d6000803e3d6000fd5b507f6d421eeca5a9719c114fbb03d722d60bdf774b785c143ed0dc5220a02f63756960405161029b9061050f565b60405180910390a1565b6000819050919050565b6102b8816102a5565b82525050565b60006020820190506102d360008301846102af565b92915050565b600081519050919050565b600082825260208201905092915050565b60005b838110156103135780820151818401526020810190506102f8565b60008484015250505050565b6000601f19601f8301169050919050565b600061033b826102d9565b61034581856102e4565b93506103558185602086016102f5565b61035e8161031f565b840191505092915050565b600060208201905081810360008301526103838184610330565b905092915050565b7f4e487b7100000000000000000000000000000000000000000000000000000000600052602260045260246000fd5b600060028204905060018216806103d257607f821691505b6020821081036103e5576103e461038b565b5b50919050565b7f416d6f756e742073686f756c64206265206d6f7265207468616e203000000000600082015250565b6000610421601c836102e4565b915061042c826103eb565b602082019050919050565b6000602082019050818103600083015261045081610414565b9050919050565b7f496e73756666696369656e742062616c616e6365000000000000000000000000600082015250565b600061048d6014836102e4565b915061049882610457565b602082019050919050565b600060208201905081810360008301526104bc81610480565b9050919050565b7f5472616e73616374696f6e207375636365737366756c6c212100000000000000600082015250565b60006104f96019836102e4565b9150610504826104c3565b602082019050919050565b60006020820190508181036000830152610528816104ec565b905091905056fea2646970667358221220e69a05330311dc3ef2ec46601eee6d313f70eb0bd14df0a71df0ed3ac70088f264736f6c63430008120033",
  "linkReferences": {},
  "deployedLinkReferences": {}
}